:020000040800F2
:10000000781000202502000859160008E91400089D
:1000100055160008310D00082F22000800000000CE
:10002000000000000000000000000000491C000863
:10003000E512000800000000F11A00085D1D00082C
:100040003F0200083F0200083F0200083F0200088C
:100050003F0200083F0200083F0200083F0200087C
:100060003F0200083F0200083F0200083F0200086C
:100070003F0200083F0200083F0200083F0200085C
:100080003F0200083F0200083F0200083F0200084C
:100090003F0200083F0200083F0200083F0200083C
:1000A0003F0200083F0200083F0200083F0200082C
:1000B000C11D0008D91D00084D1E00083F020008A0
:1000C0003F0200083F0200083F0200083F0200080C
:1000D0003F020008491F00083F020008D11F000826
:1000E0003F0200083F0200083F0200083F020008EC
:1000F0003F0200083F0200083F0200083F020008DC
:100100003F0200083F0200083F0200083F020008CB
:100110003F0200083F0200083F0200083F020008BB
:100120003F0200083F0200083F0200083F020008AB
:1001300000F002F800F066F80AA090E8000C824493
:100140008344AAF10107DA4501D100F05BF8AFF270
:10015000090EBAE80F0013F0010F18BFFB1A43F0A5
:1001600001031847B8320000D832000010F8013BF4
:100170000A4413F0030408BF10F8014B1D1108BF17
:1001800010F8015B641E05D010F8016B641E01F8C5
:10019000016BF9D1002D15D010F8014B03F00C03C1
:1001A0000C2BA1EB04040ABF10F8013BA4EB831451
:1001B000A4EB032405F1010314F8016B5B1E01F8A5
:1001C000016BF9D5914238BF10F8013BD1D370478C
:1001D0000023002400250026103A28BF78C1FBD850
:1001E000520728BF30C148BF0B607047642900F038
:1001F0008380782900F0BC80002070471FB51FBDA8
:1002000010B510BD00F0D2FA1146FFF7F7FF02F06B
:10021000F5F900F0F0FA03B4FFF7F2FF03BC02F0C7
:1002200010F800000948804709480047FEE7FEE74C
:10023000FEE7FEE7FEE7FEE7FEE7FEE7FEE7FEE796
:1002400004480549054A064B70470000611D000837
:1002500031010008780A002078100020780C002076
:10026000780C0020704700000FB4044910B503AAB1
:10027000029800F059FA10BC5DF814FBEC0600205F
:100280000FB41CB5074B06AA7B446946009005983D
:1002900000F031FA0020694600F040FA1CBC5DF81D
:1002A00014FB00009104000070B5044685690068E5
:1002B000C10601D5302600E02026C00707D070BD5A
:1002C000D4E9012130469047206A401C20626D1E0F
:1002D000F6D570BD70B5044685690078C00707D1B2
:1002E00070BDD4E9012120209047206A401C206283
:1002F0006D1EF6D570BD00002DE9F04106460024C4
:1003000010687529314616A510D0AFF3008000287B
:1003100002DA404213A507E031688A0701D512A529
:1003200002E0490704D511A5012401E0AFF30080E4
:1003300000210A2206F1240709E0B0FBF2FCB0FB21
:10034000F2F302FB1C00303078541846491C002898
:10035000F3D123462A463046BDE8F04100F06DB99E
:10036000000000002D0000002B0000002000000015
:1003700070B504460D4621461068AFF30080218811
:10038000090502D50F4A7A4402E00E4A7A440E3239
:10039000002104F1240305E000F00F060009965D3A
:1003A0005E54491C0028F7D120780023000704D5AB
:1003B000702D02D009B1022311322046BDE87040F1
:1003C00000F03BB9563000002DE9F05F8946044645
:1003D0004FF0000ADFF824B1FB44C0F820A020460B
:1003E000E168884700287DD0252806D0D4E901217E
:1003F0009047206A401C2062F1E700255F462046B6
:10040000E16888472028064607DB312E05D2B81957
:1004100010F8200C08B10543F1E7A80701D525F035
:100420000405C4F81CA00027C4F818A02A2E09D07F
:10043000304601F0FFFE38B304EB8708303EC8F8C1
:10044000186019E059F8041B204604EB87029161FB
:10045000E1688847012F064618D1E069002820DAB4
:1004600025F020051DE0D8F8180000EB800006EB11
:1004700040003038C8F818002046E1688847064632
:1004800001F0D8FE0028EED1012F0AD02E2E08D17F
:100490002046E16888477F1C0646022F45F020056C
:1004A000C4DBA069002803DA404245F00105A061E1
:1004B000E80701D025F01005A6B1A6F141001928E2
:1004C00002D8203645F400654A463146204625606C
:1004D0004D46FFF78BFE60B1012807D0ED1D25F0DA
:1004E000070000E007E000F1080978E705F10409DA
:1004F00075E730467AE7206ABDE8F09F2C300000AF
:10050000032A40F2308010F0030C00F0158011F83F
:10051000013BBCF1020F624498BF11F801CB00F817
:10052000013B38BF11F8013BA2F1040298BF00F86B
:1005300001CB38BF00F8013B11F0030300F0258028
:10054000083AC0F0088051F8043B083A51F804CB4F
:10055000A0E80810F5E7121D5CBF51F8043B40F815
:10056000043BAFF30080D20724BF11F8013B11F820
:1005700001CB48BF11F8012B24BF00F8013B00F864
:1005800001CB48BF00F8012B704710B5203AC0F0EE
:100590000B80B1E81850203AA0E81850B1E8185084
:1005A000A0E81850BFF4F5AF5FEA027C24BFB1E8C1
:1005B0001850A0E8185044BF18C918C0BDE8104032
:1005C0005FEA827C24BF51F8043B40F8043B08BF3B
:1005D0007047D20728BF31F8023B48BF11F8012B02
:1005E00028BF20F8023B48BF00F8012B70474FF0AE
:1005F00000020429C0F0128010F0030C00F0A88063
:10060000CCF1040CBCF1020F18BF00F8012BA8BFFD
:1006100020F8022BA1EB0C0100F09AB85FEAC17C34
:1006200024BF00F8012B00F8012B48BF00F8012B74
:10063000704770477047704770472DE9F0470D4687
:1006400099469246044600F124080168880604D5BC
:10065000E06921F01001216000E00120A84201DDE5
:10066000471B00E00027A1697A1902EB0900081A6C
:10067000A0612078C00602D42046FFF715FE0026B0
:1006800008E0D4E901211AF806009047206A401CCE
:10069000761C20624E45F4DB2078C0060AD5204641
:1006A000FFF702FE06E0D4E9012130209047206ADE
:1006B000401C2062381EA7F10107F4DC07E0D4E9F2
:1006C000012118F805009047206A401C2062281E6E
:1006D000A5F10105F3DC2046FFF7FCFD20780006BC
:1006E00002D50220BDE8F0870120FBE701694A1C22
:1006F00002610878704700B58FB0CDE90131002163
:10070000059105497944CDE9031011466846FFF784
:100710005BFE0FB000BD0000E5FFFFFF0A6802F8B6
:10072000010B0A6070470000074B70B50D467B4413
:10073000FFF7E1FF0446284600F02FF810B14FF014
:10074000FF3070BD204670BD771C00004FF00002E6
:1007500000B5134694469646203922BFA0E80C50B7
:10076000A0E80C50B1F12001BFF4F7AF090728BF92
:10077000A0E80C5048BF0CC05DF804EB890028BF0E
:1007800040F8042B08BF704748BF20F8022B11F037
:10079000804F18BF00F8012B7047007B00F08000ED
:1007A0007047000000487047180A00207546FFF7A0
:1007B000F9FFAE4605006946534620F0070085461E
:1007C00018B020B5FFF73CFDBDE820404FF0000613
:1007D0004FF000074FF000084FF0000B21F0070129
:1007E000AC46ACE8C009ACE8C009ACE8C009ACE86C
:1007F000C0098D46704710B50446AFF3008020460F
:10080000BDE81040FFF707BD21B1826842F0010248
:10081000826003E0826822F001028260704700007B
:1008200010B504461248844208D10121401501F058
:1008300091F90021601501F08DF917E00D4884420F
:1008400008D10121001501F085F90021201501F0E2
:1008500081F90BE00848844208D10121C80301F066
:1008600079F900214FF4004001F074F910BD000047
:100870000024014000280140003C014001460020C6
:100880008A6802F004020AB1012000E000207047EB
:100890000146C86C80B270470246002013680B40C6
:1008A0000BB1012000E000207047014600208A685B
:1008B00002F008020AB1012000E0002070470000A9
:1008C00030B502460020002350680F4C20400D79BF
:1008D0000C6844EA05242043506090680B4C20408B
:1008E000D1E902542C434D7944EA450420439060F9
:1008F000D06A20F470000C7C641EE4B2234340EA0A
:100900000350D06230BD0000FFFEF0FFFDF7F1FFA5
:10091000F0B504460D4600200021092D11DDE068E8
:10092000A5F10A0606EB4607072606FA07F18843F3
:10093000A5F10A0606EB460603FA06F10843E06055
:100940000CE0206905EB4507072606FA07F1884306
:1009500005EB450603FA06F108432061072A0FDA82
:10096000606B561E06EB86071F2606FA07F18843C2
:10097000561E06EB860605FA06F10843606322E080
:100980000D2A0FDA206BD61F06EB86071F2606FA04
:1009900007F18843D61F06EB860605FA06F10843E1
:1009A000206310E0E06AA2F10D0606EB86071F2621
:1009B00006FA07F18843A2F10D0606EB860605FA52
:1009C00006F10843E062F0BD816841F008018160F2
:1009D000704721B1826842F4A002826003E082681D
:1009E00022F4A00282607047816841F004018160B6
:1009F0007047000000B587B001214FF4017001F08D
:100A000099F800208DF81B00F020ADF818000320A5
:100A10008DF81A0006A9174800F065FC1648FFF784
:100A2000FFFE00208DF8090004904FF46020039031
:100A30000020019001208DF8140000208DF808009E
:100A400001A90D48FFF73CFF01210B48FFF7DCFE31
:100A50000948FFF7B9FF00BF0748FFF726FF002846
:100A6000FAD10548FFF7C0FF0348FFF707FF07B0BB
:100A700000BD0000000801400024014010B5002026
:100A80000F4908600F48006820F070400D49086069
:100A90000846006840F04050086000200A49C1F84C
:100AA0009C01022001F05AFC012005490860022047
:100AB00001F054FC00200449C1F8980110BD000069
:100AC00098812142000C01400080214208B501219B
:100AD000082001F02FF8C020ADF8000010208DF89C
:100AE000030003208DF802006946054800F0FBFB77
:100AF0000120044908600449C1F89C0108BD0000B8
:100B0000000C0140988121420080214210B5002054
:100B10000F4908600F48006820F070400D490860D8
:100B20000846006840F04050086001200A49C1F8BA
:100B30009C01022001F012FC0120054908600220FE
:100B400001F00CFC00200449C1F8980110BD000020
:100B500098812142000C01400080214270B5054679
:100B600000241748006820F07040154908600846C6
:100B7000006840F000400860002616E0002011499F
:100B80000860022001F0EAFB01200F49C1F898013A
:100B90006006040E0B487C38006808B1601CC4B2C3
:100BA000012001F0DBFB701CC6B2082EE6DB15B994
:100BB000FFF7ACFF01E0FFF761FF204670BD0000CA
:100BC000000C0140988121420080214270B504460A
:100BD0001548006820F07040134908600846006816
:100BE00040F040500860002010490860002517E0E0
:100BF000E0090E49091D08606006040E022001F09C
:100C0000ADFB01200A49C1F89801022001F0A6FBC2
:100C1000002006490860022001F0A0FB681CC5B254
:100C2000082DE5DB70BD0000000C014098812142D9
:100C30000080214210B50F48006820F070400D4937
:100C400008600846006840F04050086001200A49EA
:100C500008600A49C1F89801042001F07FFB0020D8
:100C600005490860042001F079FB00200349C1F820
:100C7000980110BD000C01409C812142008021425E
:100C800010B50F48006820F070400D490860084614
:100C9000006840F04050086000200A4908600A4996
:100CA000C1F89C01042001F059FB012005490860AE
:100CB0000549C1F89C01042001F050FB10BD000063
:100CC000000C0140988121420080214210B500248F
:100CD0001448006820F07040124908600846006817
:100CE00040F00040086001200F49086001F036FB29
:100CF00001200E49C1F8980101F030FB07E0601CAB
:100D0000C4B2FA2C03DDFFF7BBFF012010BD06487B
:100D1000803800680028F2D10349091F086000BF2D
:100D2000F4E70000000C01409C8121420080214238
:100D300000BFFEE770B504460725012C7ED10020D8
:100D4000FE49086000F0CCFC50E2002000F0EEFB11
:100D50000446012C04D1681CC5B2082D00DB002517
:100D6000F7480278F7A1FB48FFF78AFA0C23F94A03
:100D70000721082000F03AFE002D2FD10C23F6A207
:100D80000021084600F032FE0C23F4A201210020CD
:100D900000F02CFE0C23F0A20221002000F026FE21
:100DA0000C23EDA20321002000F020FE0C23EAA278
:100DB0000421002000F01AFE0C23E7A205210020E8
:100DC00000F014FE0C23E4A20621002000F00EFE29
:100DD0000C23E1A20721002000F008FE012D31D1F3
:100DE0000C23DDA20021084600F000FE0C23DAA24D
:100DF0000121002000F0FAFD0C23D8A202210020DE
:100E000000F0F4FD0C23D4A20321002000F0EEFD3D
:100E10000C23D1A20421002000F0E8FD0C23CEA277
:100E20000521002000F0E2FD0C23CBA206210020CA
:100E300000F0DCFD0C23C8A2072100E0D8E100206F
:100E400000F0D4FD022D2FD10C23C3A200210846AF
:100E500000F0CCFD0C23C0A20121002000F0C6FD53
:100E60000C23BDA20221002000F0C0FD0C23BBA278
:100E70000321002000F0BAFD0C23B7A204210020BA
:100E800000F0B4FD0C23B4A20521002000F0AEFD5B
:100E90000C23B1A20621002000F0A8FD0C23AEA275
:100EA0000721002000F0A2FD032D2FD10C23AAA2C0
:100EB0000021084600F09AFD0C23A7A20121002082
:100EC00000F094FD0C23A4A20221002000F08EFD6E
:100ED0000C23A1A20321002000F088FD0C239FA277
:100EE0000421002000F082FD0C239BA2052100209C
:100EF00000F07CFD0C2398A20621002000F076FD76
:100F00000C2395A20721002000F070FD042D2FD1A5
:100F10000C2391A20021084600F068FD0C238EA24C
:100F20000121002000F062FD0C238BA20221002091
:100F300000F05CFD0C2388A20321002000F056FD88
:100F40000C2385A20421002000F050FD0C2383A275
:100F50000521002000F04AFD0C237FA2062100207D
:100F600000F044FD0C237CA20721002000F03EFD90
:100F7000052D2FD10C2378A20021084600F036FD64
:100F80000C2375A20121002000F030FD0C2372A279
:100F90000221002000F02AFD0C236FA20321002073
:100FA00000F024FD0C236CA20421002000F01EFDA3
:100FB0000C2369A20521002000F018FD0C2367A274
:100FC0000621002000F012FD0C2363A2072100205F
:100FD00000F00CFD062D2FD10C235FA20021084646
:100FE00000F004FD0C235CA20121002000F0FEFCB7
:100FF0000C2359A20221002000F0F8FC0C2356A279
:101000000321002000F0F2FC0C2353A20421002055
:1010100000F0ECFC0C2350A20521002000F0E6FCBF
:101020000C234DA20621002000F0E0FC0C234BA273
:101030000721002000F0DAFC072D2FD10C2347A256
:101040000021084600F0D2FC0C2343A2012100201D
:1010500000F0CCFC0C2340A20221002000F0C6FCD2
:101060000C233DA20321002000F0C0FC0C233AA277
:101070000421002000F0BAFC0C2337A20521002037
:1010800000F0B4FC0C2334A20621002000F0AEFCDA
:101090000C2331A20721002000F0A8FC6DB9032C1D
:1010A00004D12F480088401C2D490880022C04D10F
:1010B0002B480088401E2A490880012D0DD1032CA1
:1010C00004D128480088401C26490880022C04D1FD
:1010D00024480088401E23490880022D0DD1032C8E
:1010E00004D12148008814301F490880022C04D103
:1010F0001D48008814381C490880032D0DD1032C8D
:1011000004D11A480088323018490880022C04D1D2
:1011100016480088323815490880042D0DD1032C5B
:1011200004D113480088323011490880022C04D1C0
:101130000F48008832380E4908801BE0B401224273
:101140000E000020576F726B696E67206D643A2540
:10115000346400000C070020200000003E00000066
:101160001E0000202000002022000020240000207B
:1011700026000020052D0DD1032C04D11D48008828
:1011800032301C490880022C04D11A4800883238B9
:1011900018490880062D0DD1032C04D1164800886B
:1011A000323015490880022C04D1134800883238A7
:1011B00011490880072D14D1032C04D10F48007861
:1011C000401C0E490870022C04D10C480078401EC7
:1011D0000A49087009480078022802DB0020074904
:1011E0000870042C02D100F07BFA00E0ADE500BFEE
:1011F00070BD0000280000202A0000200E00002002
:1012000010B500241548006820F07060134908608C
:101210000846006840F00060086004E0601CC4B24A
:10122000012001F09BF80E48006808B1642CF5DB42
:10123000642C01DB012010BD002404E0601CC4B25A
:10124000012001F08BF80648006808B9642CF5DB32
:10125000642C01DB0120EEE70020ECE7040C0140E8
:101260003881214208B50121082000F063FC4FF4C9
:101270008040ADF8000010208DF8030003208DF8A9
:1012800002006946064800F02EF84FF480410448F9
:1012900000F007F900F006F8FFF7B2FF08BD000004
:1012A000000C014010B50C48006820F070600A493D
:1012B00008600846006840F0407008600020074958
:1012C0000860142001F024F801200549C1F8B80194
:1012D0001E2001F043F810BD040C0140B8812142EA
:1012E0000080214270472DE9F0410246002500268A
:1012F000002000230024002791F803C00CF00F0504
:1013000091F803C00CF0100CBCF1000F03D091F861
:1013100002C04CEA050591F800C0BCF1000F31D0C5
:10132000146800202BE04FF0010C0CFA00F3B1F828
:1013300000C00CEA03069E4220D183004FF00F0C40
:101340000CFA03F7BC4305FA03FC4CEA040491F8D9
:1013500003C0BCF1280F06D14FF0010C0CFA00FCC1
:10136000C2F814C00AE091F803C0BCF1480F05D1DF
:101370004FF0010C0CFA00FCC2F810C0401C082809
:10138000D1D31460B1F800C0BCF1FF0F34DD546854
:1013900000202EE000F1080C4FF0010808FA0CF3D1
:1013A000B1F800C00CEA03069E4221D183004FF041
:1013B0000F0C0CFA03F7BC4305FA03FC4CEA0404D7
:1013C00091F803C0BCF1280F05D100F1080C08FA10
:1013D0000CF8C2F8148091F803C0BCF1480F07D193
:1013E00000F1080C4FF0010808FA0CF8C2F8108060
:1013F000401C0828CED35460BDE8F081F0B50A4601
:10140000002300240021002500F00046B6F1004F23
:1014100002D11D4EF16901E01B4E7168C0F3034516
:1014200083B200F44016B6F5401F08D121F0706178
:10143000154E766826F07066134F7E6012E000F459
:101440008016B6F5801F06D1032606FA05F4A143DF
:1014500041F0706106E0460D360103FA06F6B1432D
:1014600041F0706122B1460D360103FA06F63143B0
:1014700000F00046B6F1004F02D1034EF16101E0E9
:10148000014E7160F0BD00000000014002460020E6
:1014900093680B400BB1012000E0002070474161D0
:1014A000704701617047000010B50446062000F047
:1014B00089FFC0F580500149088010BD1C00002044
:1014C00010B541F61F41092000F096FC4FF416506C
:1014D00001F0FCFA1E210348FFF789F800F0F4FF41
:1014E00010BD00002A07002000BFFEE708B501215B
:1014F0000C2000F01FFB4FF44870ADF800004820AE
:101500008DF8030069460748FFF7EDFE0120ADF8AE
:10151000000048208DF8030069460348FFF7E3FE0A
:1015200008BD0000000C01400008014010B5044651
:1015300014B101202D4908702C480078002839D0BA
:1015400020212B48FFF7A2FF80B14FF4807128487B
:10155000FFF79CFF50B14FF400712548FFF796FF4D
:1015600020B101212348FFF791FF18BB0A2000F0AA
:10157000CFFE00201D4908704FF400711C48FFF792
:1015800085FF08B9042010BD20211948FFF77EFF10
:1015900008B90220F7E74FF480711548FFF776FF8E
:1015A00008B90320EFE701211248FFF76FFFD8B910
:1015B0000120E8E720210E48FFF768FF012813D13A
:1015C00001020B48FFF762FF01280DD141020848D4
:1015D000FFF75CFF012807D101210648FFF756FFFE
:1015E000012801D1014908700020CCE74800002003
:1015F000000C01400008014008B501211C2000F04A
:1016000099FA0920ADF8000010208DF8030003209E
:101610008DF8020069460C48FFF765FE01210A4873
:10162000FFF73DFF4FF4C050ADF800006946074892
:10163000FFF759FE4FF40050ADF80000694604482A
:10164000FFF751FE08BD0000000C014000080140FA
:101650000010014000BFFEE77047000070B5002198
:1016600000230F22C47804B3154C246804F4E0640A
:10167000C4F5E064210AC1F10403CA40447804FAC5
:1016800003F184781440214309010E4C0678A155DA
:10169000047804F01F050124AC4005786D11AD00FD
:1016A00005F1E025C5F8004109E0047804F01F05C4
:1016B0000124AC40044D0678761145F8264070BDF3
:1016C0000CED00E000E400E080E100E002490143AD
:1016D000024A1160704700000000FA050CED00E0BE
:1016E00070B5002418E004F1B000002100F099F971
:1016F0000021084600F095F90021102000F091F932
:10170000002505E00121002000F08BF9681CC5B21E
:10171000802DF7DB601CC4B2082CE4DB70BD000038
:1017200010B54FF480510948FFF7BBFE4FF400514C
:101730000648FFF7B6FE4FF400510448FFF7AFFE2E
:101740004FF480510148FFF7AAFE10BD000C014084
:1017500010B54FF480510748FFF7A3FE4FF4005136
:101760000448FFF79CFE4FF400510248FFF799FE32
:1017700010BD0000000C014010B54FF4805104482A
:10178000FFF78FFE4FF480510148FFF788FE10BD30
:10179000000C014008B50121092000F0CBF901211E
:1017A0004348FFF72BFE4FF44050ADF800001020E7
:1017B0008DF8030003208DF8020069463D48FFF7CD
:1017C00092FD4FF440513B48FFF76BFE4FF44870D9
:1017D00000F09EFD0021AE2000F023F90021084614
:1017E00000F01FF90021102000F01BF9002140201B
:1017F00000F017F90021B02000F013F9002181203A
:1018000000F00FF90021FF2000F00BF90021A120CA
:1018100000F007F90021A62000F003F90021A8201C
:1018200000F0FFF800213F2000F0FBF80021C82065
:1018300000F0F7F80021D32000F0F3F8002108466B
:1018400000F0EFF80021D52000F0EBF80021802017
:1018500000F0E7F80021D82000F0E3F8002105208F
:1018600000F0DFF80021D92000F0DBF80021F120A2
:1018700000F0D7F80021DA2000F0D3F80021122080
:1018800000F0CFF80021DB2000F0CBF80021302061
:1018900000F0C7F800218D2000F0C3F800211420CB
:1018A00000F0BFF80021AF2000F0BBF808BD000039
:1018B00000023000000C014070B504460D4605F1F1
:1018C000B000002100F0ADF8102141EA1410002111
:1018D00000F0A7F804F00F00002100F0A2F870BD9E
:1018E0002DE9F04180460E46154600273146404618
:1018F000FFF7E2FF00240AE0124A02EB8511085DBF
:10190000012100F08EF8781CC7B2601CC4B2102C04
:10191000F2DB701CC1B24046FFF7CEFF00240CE0A2
:101920006900491C074A02EB4111085D012100F0E2
:1019300078F8781CC7B2601CC4B2102CF0DBBDE88C
:10194000F0810000490000202DE9F04707460E46CF
:101950009046994600250024A8F12000C5B27F2FAB
:1019600002DD0027B01CC6B2B9F1100F24D13146F8
:101970003846FFF7A1FF002408E004EB0511194ADF
:10198000505C012100F04DF8601CC4B2082CF4DB5F
:10199000701CC1B23846FFF78FFF002409E004EB4A
:1019A000051108310F4A505C012100F03AF8601C23
:1019B000C4B2082CF3DB12E031463846FFF77CFF57
:1019C00000240AE005EB4501074A02EB4101085DEE
:1019D000012100F026F8601CC4B2062CF2DBBDE841
:1019E000F0870000E02D0008B82B00082DE9F04139
:1019F00005460E4614461F460EE022783B46314609
:101A00002846FFF7A1FF05F10800C5B2782D02DDD9
:101A10000025B01CC6B2641C20780028EDD1BDE8BA
:101A2000F08170B504460D461DB1E0B200F04AF8F1
:101A300002E0E0B200F030F870BD00002DE9F041A6
:101A400005462C464FF480511248FFF728FD00262A
:101A50001CE0274607F08007802F04D1B9010D480C
:101A6000FFF71FFD04E04FF400510A48FFF717FD90
:101A70006006040E4FF480510648FFF712FD4FF444
:101A800080510448FFF70BFD701CC6B2082EE0DB46
:101A9000BDE8F081000C014010B50446FFF740FEA0
:101AA0007820FFF7CBFFFFF767FE0020FFF7C6FFA8
:101AB000FFF762FE2046FFF7C1FFFFF75DFEFFF76D
:101AC00047FE10BD10B50446FFF72AFE7820FFF749
:101AD000B5FFFFF751FE4020FFF7B0FFFFF74CFEC8
:101AE0002046FFF7ABFFFFF747FEFFF731FE10BDC3
:101AF0007047000029B1064AD2690243044BDA61FB
:101B000004E0034AD2698243014BDA617047000066
:101B10000010024029B1064A12690243044B1A61BF
:101B200004E0034A12698243014B1A6170470000C6
:101B30000010024029B1064A92690243044B9A619F
:101B400004E0034A92698243014B9A6170470000A6
:101B50000010024029B1064AD2680243044BDA6001
:101B600004E0034AD2688243014BDA607047000008
:101B70000010024030B500210022002400232D4D2A
:101B80006D6805F00C0121B1042905D0082923D185
:101B900005E0294D056022E0274D05601FE0254D39
:101BA0006D6805F47012234D6D6805F480340225CC
:101BB00005EB92421CB9214D554305600BE01D4DCC
:101BC0006D6805F400351DB11C4D5543056002E0FC
:101BD000194D5543056002E0174D056000BF00BF79
:101BE000144D6D6805F0F0010909154D6B5C056831
:101BF000DD4045600F4D6D6805F4E061090A104D48
:101C00006B5C4568DD4085600A4D6D6805F4605188
:101C1000C90A0B4D6B5C4568DD40C560054D6D68BC
:101C200005F44041890B074D6B5CC568B5FBF3F5C6
:101C3000056130BD0010024000127A0000093D002D
:101C4000F206002002070020704710B500F002F8ED
:101C500010BD00000CB500200190009033480068D2
:101C600040F480303149086000BF3048006800F41B
:101C7000003000900198401C0190009818B901981C
:101C8000B0F5A06FF1D12948006800F4003010B120
:101C90000120009001E0002000900098012843D12D
:101CA0002348006840F01000214908600846006899
:101CB00020F0030008600846006840F00200086059
:101CC0001A48406819494860084640684860084614
:101CD000406840F4806048600846406820F47C100A
:101CE00048600846406840F4E810486008460068CC
:101CF00040F08070086000BF0C48006800F0007081
:101D00000028F9D00948406820F0030007494860DE
:101D10000846406840F00200486000BF0348406841
:101D200000F00C000828F9D10CBD000000100240A2
:101D300000200240042808D14FF0E021096941F059
:101D400004014FF0E022116107E04FF0E021096942
:101D500021F004014FF0E02211617047704700004C
:101D600010B51348006840F00100114908600846AA
:101D70004068104908400E494860084600680E490E
:101D800008400B4908600846006820F4802008607D
:101D90000846406820F4FE0048604FF41F00886049
:101DA000FFF753FF4FF000600449086010BD0000CA
:101DB000001002400000FFF8FFFFF6FE08ED00E013
:101DC00010B50121880700F05CF818B101218807DF
:101DD00000F048F810BD000010B50121054800F0E2
:101DE00050F828B10121034800F03CF800F03EFB18
:101DF00010BD0000000400407FB505460C460121DF
:101E00000220FFF777FEADF80850ADF8044000203F
:101E1000ADF80A00ADF8060001A90B4800F042F841
:101E20001D208DF8000000208DF8010003208DF8A2
:101E3000020001208DF803006846FFF70FFC012126
:101E4000014800F012F87FBD0004004010B50121E8
:101E5000034800F016F80121014800F003F810BD16
:101E600000080040CA430282704721B1028842F054
:101E70000102028004E002884FF6FE731A400280DD
:101E8000704730B50246002000230024158A05EA79
:101E90000103958905EA010413B10CB1012000E0AA
:101EA000002030BD002202881D4B98420ED01D4BF1
:101EB00098420BD0B0F1804F08D01B4B984205D010
:101EC0001A4B984202D01A4B984204D14FF68F73A6
:101ED0001A404B881A43174B984207D0164B98422A
:101EE00004D04FF6FF431A40CB881A4302808B88F8
:101EF00083850B8803850A4B98420BD0094B984287
:101F000008D00E4B984205D00D4B984202D00D4B95
:101F1000984201D10B7A0386012383827047000027
:101F2000002C014000340140000400400008004043
:101F3000000C004000100040001400400040014030
:101F4000004401400048014010B540F225511D48B1
:101F500000F0ACF810B31B4800F064F9C4B21A48A2
:101F6000008800F40040C8B91748008800F4804099
:101F700060B10A2C03D000201349088020E01248E9
:101F8000008840F400401049088019E00D2C06D16B
:101F90000D48008840F480400B49088010E00A4852
:101FA0000088C0F30D0009490C5407480088401C04
:101FB0000549088008460088C72801DD0020088000
:101FC00010BD000000380140F00600207807002016
:101FD00008B540F22551074800F068F840B10548BF
:101FE00000F020F9C0B200900121684600F004FA28
:101FF00008BD00000048004021B1828942F400522F
:10200000828104E082894DF6FF731A408281704715
:1020100010B504462048844209D101218803FFF706
:1020200099FD00214FF48040FFF794FD32E01B48FA
:10203000844209D101214804FFF76CFD00214FF4CF
:102040000030FFF767FD25E01548844209D10121E2
:102050008804FFF75FFD00214FF48020FFF75AFD51
:1020600018E01048844209D10121C804FFF752FD4D
:1020700000214FF40020FFF74DFD0BE00A48844299
:1020800008D101210805FFF745FD00214FF480101C
:10209000FFF740FD10BD0000003801400044004043
:1020A00000480040004C00400050004070B502461F
:1020B000002400230025002040F66A16B14200D11A
:1020C00000BFC1F3421501F01F03012606FA03F316
:1020D000012D02D19689334006E0022D02D1168AE5
:1020E000334001E0968A33400C12012606FA04F4CC
:1020F0001688344013B10CB1012000E0002070BDFF
:10210000F0B50346002400260025002040F66A179B
:10211000B94200D100BF1846C1F3421401F01F06B6
:10212000012707FA06F5012C01D10C3004E0022C3E
:1021300001D1103000E014301AB107682F43076056
:1021400002E00768AF430760F0BD00002DE9F047EB
:1021500086B005460E460024A24600BFA1460027D1
:10216000B08900B100BF2F462C8A4CF6FF700440A6
:10217000F08804432C82AC894EF6F3100440B088FA
:1021800031890843718908430443AC81AC8A4FF616
:10219000FF400440B0890443AC8201A8FFF7EAFC89
:1021A0001F48874202D1DDF810A001E0DDF80CA045
:1021B000A88900F4004040B10AEBCA0000EB0A1005
:1021C00031684900B0FBF1F807E00AEBCA0000EB08
:1021D0000A1031688900B0FBF1F86420B8FBF0F018
:1021E00004012009642101FB1089A88900F4004042
:1021F00040B1322000EBC900B0FBF1F000F0070065
:10220000044308E0322000EB09106421B0FBF1F038
:1022100000F00F0004432C8106B0BDE8F0870000F9
:102220000038014001468888C0F30800704700BFAD
:10223000FEE7704730380A2801D20120704700209D
:10224000704700BF7047000010B51848007808B10B
:10225000012010BDFEF73AFC142000F059F8D021FF
:10226000EC2000F093F912490870084600785828CD
:1022700005D1084601780FA0FDF7F6FF01E0002028
:10228000E7E7114B18228821EC2000F04FF9B32228
:10229000F421EC2000F09AF91422F521EC2000F052
:1022A00095F901200149087000BFD2E7CD06002052
:1022B000CC060020424D503238302049442049534A
:1022C0003A20307825580A004807002010B56FF0F2
:1022D0000400FFF72FFD0A4800680A49B0FBF1F03F
:1022E000094908700846007800EB4001C1EBC010B6
:1022F0004FF6FF7101EAC0000449088010BD0000DC
:102300003400002000127A00E6060020E8060020D3
:102310000146114A12884A434FF0E0235A610022D5
:102320009A611A46126942F001021A6100BF4FF029
:10233000E022106900F001021AB100F48032002A94
:10234000F5D04FF0E022126922F001024FF0E023B5
:102350001A6100229A617047E80600200146114A7E
:1023600012784A434FF0E0235A6100229A611A46DC
:10237000126942F001021A6100BF4FF0E0221069B9
:1023800000F001021AB100F48032002AF5D04FF0BB
:10239000E022126922F001024FF0E0231A610022CC
:1023A0009A617047E606002000BF054A128802F0D5
:1023B0004002002AF9D0C2B2014B1B1D1A8070479F
:1023C0000038014010B50446072301222146094880
:1023D000FEF79EFA01210748FEF7FBFA00BF022133
:1023E0000448FEF759FA0028F9D00248FEF750FADF
:1023F00010BD00000024014070B504460D460026C3
:1024000024B90AA0FDF730FF701E70BD2A46214690
:102410000E4800F0BEFA0646AE4205D00CA0FDF70D
:1024200023FF4FF0FF30F0E73046EEE74552523AD7
:102430002067697A50757444617461206275662002
:10244000697320656D707479200A0000C10900204D
:102450004552523A204661696C656420746F20725F
:10246000625772697465200A000000000248006823
:10247000401C014908607047080700202DE9F0471B
:102480000446002500260027A846A946AA462CB9DE
:1024900003A0FDF7E9FE681EBDE8F0870020FBE71A
:1024A00047697A7769747348616E646C6520457218
:1024B000726F72202C20496C6C6567616C205061D2
:1024C00072616D0A0000000010B546200A490860DC
:1024D0000A48C860084600F051FA18B908A0FDF78C
:1024E000C3FE02E00BA0FDF7BFFE40F281110E48D3
:1024F000FEF77DF810BD0000C1090020D1090020C1
:1025000072624372656174652053756363657373AA
:10251000200A000072624372656174652046616939
:102520006C64200A00000000400800202DE9F04102
:102530000746884615461E460024FEF77BFB3846B4
:10254000FEF744FBFEF7C2FB4046FEF73FFBFEF7FB
:10255000BDFBFEF76FFB47F00100FEF737FBFEF710
:10256000B5FB00BF0CE0681EA04204D10020FEF7BE
:10257000F5FA305503E00120FEF7F0FA3055641CFF
:10258000AC42F0DBFEF77CFBBDE8F08170B50446A1
:102590000D460026FEF74EFB2046FEF717FBFEF722
:1025A00095FB2846FEF712FBFEF790FBFEF742FB79
:1025B00044F00100FEF70AFBFEF788FB0020FEF75F
:1025C000CDFA0646FEF75CFB304670BD70B5064698
:1025D0000C461546FEF72EFB3046FEF7F7FAFEF7DF
:1025E00075FB2046FEF7F2FAFEF770FB2846FEF771
:1025F000EDFAFEF76BFBFEF743FB70BD00244FF4D2
:10260000E13000F013FAFFF761FE4FF4A060FFF72E
:102610005DF8FEF7EFF9FEF769FFFFF715FE00BF63
:10262000FEF720FE0028FBD1FEF7E6FFFFF7B2F829
:10263000FFF756F8FEF744FF00209E49086037E197
:102640000020FEF731FF9C4800889C490988884299
:1026500008DC9B48007828B900209A4908609A490C
:1026600008700DE09448008894490988884207DD85
:102670009348007820B90120924908609249087077
:102680009249087800EBD0714910A0EB4101002974
:102690007FD10A2C7DDB002211461046FFF720F97E
:1026A000022200211020FFF71BF98948027889A136
:1026B0008A48FDF7E5FD1023884A00212020FFF716
:1026C00095F9012200214020FFF70AF9022200219A
:1026D0005220FFF705F98248027882A17F48FDF772
:1026E000CFFD10237D4A00216020FFF77FF90322F0
:1026F00002210020FFF7F4F8042202211020FFF746
:10270000EFF87A4802887AA17448FDF7B9FD1023E2
:10271000724A02212020FFF769F9052204210020D6
:10272000FFF7DEF8062204211020FFF7D9F8072270
:1027300004212020FFF7D4F8082204213020FFF7DD
:10274000CFF85D4802886EA16448FDF799FD10231B
:10275000624A04214020FFF749F915220621002092
:10276000FFF7BEF8162206211020FFF7B9F817224E
:1027700006212020FFF7B4F8182206213020FFF7A9
:10278000AFF8102360A206214020FFF72FF97FE069
:10279000FFE74E49087800EBD0714910A0EB4101EA
:1027A000012975D10A2C73DB0D2200210846FFF7A1
:1027B00097F80E2200211020FFF792F80F22002137
:1027C0002020FFF78DF8102200213020FFF788F835
:1027D0004E4802884AA14148FDF752FD10233F4A66
:1027E00000214020FFF702F9112202210020FFF70B
:1027F00077F8122202211020FFF772F8132202212B
:102800002020FFF76DF8142202213020FFF768F82E
:102810003F4802883AA13148FDF732FD10232F4A84
:1028200002214020FFF7E2F8052204210020FFF7F3
:1028300057F8062204211020FFF752F8072204213E
:102840002020FFF74DF8082204213020FFF748F838
:10285000194802882AA12148FDF712FD10231F4ABA
:1028600004214020FFF7C2F8152206210020FFF7BF
:1028700037F8162206211020FFF732F8172206211A
:102880002020FFF72DF8182206213020FFF728F826
:1028900000F074F9E8B2FFF7CCFC1E48FFF7EEFD3C
:1028A000E8B2FEF747FA601CC4B26420FFF730FDBF
:1028B000C6E60000B40122421600002024000020D9
:1028C0000E00002080812142110000201000002015
:1028D000E40600203A253264430000000C07002083
:1028E000E50600203A25326425250000140000206A
:1028F0003A2532646870612020202020000000000A
:102900003A25346470706D003A0000001800002011
:102910001A0000202A07002000B5024612B94FF025
:10292000FF3000BD50689168884201D10020F8E76F
:1029300050689168884203D290685168401AF0E765
:10294000104600F014F851689368C91A401AE8E775
:1029500030B5044614B94FF0FF3030BD204600F0CA
:1029600006F805462046FFF7D7FF281AF5E7014687
:1029700011B94FF0FF3070470868FCE7014611B904
:102980004FF0FF307047C8684860C8688860002012
:10299000F8E72DE9F04104460F461546002604B13C
:1029A0001FB94FF0FF30BDE8F0812046FFF7D0FFA0
:1029B000A84202D86FF00100F5E76068A16888427C
:1029C0002AD82046FFF7D3FFA168E268891A461A81
:1029D000B54213D8A0682A463946FDF791FDA06894
:1029E0002844A0602046FFF7C2FFE1680844A168C0
:1029F000884201D1E068A0602846D4E7A06832464A
:102A00003946FDF77DFDE068A060AA1BB919204694
:102A1000FFF7BFFF3044C6E7A0682A463946FDF7F6
:102A20006FFDA0682844A0602846BCE710B586B0BA
:102A30000446012144F20400FFF77CF84FF40070D3
:102A4000ADF8140003208DF8160018208DF817003B
:102A500005A91C48FEF747FC4FF48060ADF8140050
:102A600004208DF8170005A91648FEF73CFC252028
:102A70008DF8000003208DF801008DF80200012080
:102A80008DF803006846FEF7E9FD01940020ADF8DB
:102A90000800ADF80A00ADF80C00ADF810000C20ED
:102AA000ADF80E0001A90848FFF750FB012240F2E3
:102AB00025510548FFF724FB01210348FFF79CFA45
:102AC00006B010BD000801400038014010B586B0C6
:102AD000044601210820FFF72DF801218804FFF7A3
:102AE00009F82448FFF794FA4FF48060ADF810001D
:102AF00003208DF8120018208DF8130004A91E4839
:102B0000FEF7F1FB4FF40060ADF8100004208DF8E3
:102B1000130004A91848FEF7E6FB00940020ADF866
:102B20000400ADF80600ADF80800ADF80C000C206C
:102B3000ADF80A0069460F48FFF708FB01210D4870
:102B4000FFF75AFA012240F225510A48FFF7D8FA56
:102B500027208DF8140002208DF8150003208DF831
:102B6000160001208DF8170005A8FEF777FD06B0C6
:102B700010BD000000480040000C01400A480068F9
:102B800008B9012000E000200849087008480078D2
:102B900008B1012000E00020044948700548007891
:102BA000C1F8020070470000808121422A070020FE
:102BB00011000020E40600200000000000000000DA
:102BC000002F000000000700070000147F147F148E
:102BD00000242A7F2A120062640813230036495514
:102BE000225000000503000000001C2241000000EC
:102BF00041221C000014083E08140008083E080882
:102C0000000000A0600000080808080800006060DC
:102C10000000002010080402003E5149453E00001B
:102C2000427F4000004261514946002141454B31FD
:102C3000001814127F10002745454539003C4A49C9
:102C4000493000017109050300364949493600063B
:102C50004949291E000036360000000056360000A3
:102C6000000814224100001414141414000041221E
:102C7000140800020151090600324959513E007CF6
:102C80001211127C007F49494936003E41414122E0
:102C9000007F4141221C007F49494941007F0909C9
:102CA0000901003E4149497A007F0808087F000079
:102CB000417F4100002040413F01007F0814224134
:102CC000007F40404040007F020C027F007F0408EC
:102CD000107F003E4141413E007F09090906003E48
:102CE0004151215E007F0919294600464949493171
:102CF0000001017F0101003F4040403F001F204094
:102D0000201F003F4038403F006314081463000751
:102D10000870080700615149454300007F414100A8
:102D200000552A552A55000041417F000004020148
:102D30000204004040404040000001020400002026
:102D400054545478007F4844443800384444442064
:102D500000384444487F00385454541800087E0911
:102D600001020018A4A4A47C007F080404780000D9
:102D7000447D4000004080847D00007F1028440096
:102D80000000417F4000007C04180478007C0804A7
:102D9000047800384444443800FC242424180018E3
:102DA000242418FC007C08040408004854545420CF
:102DB00000043F444020003C4040207C001C204058
:102DC000201C003C4030403C004428102844001C9B
:102DD000A0A0A07C004464544C4414141414141493
:102DE00000000000000000000000000000000000E3
:102DF000000000F800000000000000333000000078
:102E000000100C06100C060000000000000000007E
:102E100040C07840C0784000043F04043F040400F0
:102E2000007088FC08300000001820FF211E000000
:102E3000F008F000E018000000211C031E211E0015
:102E400000F00888700000001E212324192721109B
:102E500010160E000000000000000000000000003E
:102E6000000000E0180402000000000718204000E5
:102E700000020418E00000000040201807000000D5
:102E8000404080F0804040000202010F0102020039
:102E9000000000F0000000000101011F010101001D
:102EA000000000000000000080B070000000000082
:102EB000000000000000000000010101010101010B
:102EC00000000000000000000030300000000000A2
:102ED0000000000080601804006018060100000077
:102EE00000E010080810E000000F102020100F0074
:102EF000001010F8000000000020203F20200000FB
:102F00000070080808887000003028242221300052
:102F100000300888884830000018202020110E005A
:102F20000000C02010F8000000070424243F240003
:102F300000F80888880808000019212020110E00D8
:102F400000E0108888180000000F112020110E00EA
:102F500000380808C83808000000003F00000000E2
:102F60000070880808887000001C222121221C00A3
:102F700000E010080810E0000000312222110F00CC
:102F8000000000C0C0000000000000303000000061
:102F900000000080000000000000806000000000D1
:102FA00000008040201008000001020408102000EA
:102FB0004040404040404000040404040404040035
:102FC00000081020408000000020100804020100CA
:102FD000007048080808F0000000003036010000CA
:102FE000C030C828E810E0000718272423140B007D
:102FF0000000C038E0000000203C230202273820F7
:1030000008F8888888700000203F202020110E00DA
:10301000C0300808080838000718202020100800D1
:1030200008F808080810E000203F202020100F00BA
:1030300008F88888E8081000203F20202320180086
:1030400008F88888E8081000203F200003000000EE
:10305000C03008080838000007182020221E02008F
:1030600008F808000008F808203F210101213F204E
:10307000000808F8080800000020203F2020000079
:1030800000000808F8080800C08080807F00000069
:1030900008F888C028180800203F200126382000A2
:1030A00008F8080000000000203F20202020300009
:1030B00008F8F800F8F80800203F003F003F200023
:1030C00008F830C00008F808203F200007183F002B
:1030D000E01008080810E0000F10202020100F005A
:1030E00008F808080808F000203F2101010100004D
:1030F000E01008080810E0000F18242438504F0092
:1031000008F8888888887000203F2000030C302051
:1031100000708808080838000038202121221C008F
:10312000180808F8080818000000203F20000000D8
:1031300008F808000008F808001F202020201F00C1
:103140000878880000C83808000007380E01000021
:10315000F80800F80008F800033C0700073C0300EB
:10316000081868808068180820302C03032C302051
:103170000838C800C83808000000203F20000000C0
:1031800010080808C8380800203826212020180018
:10319000000000FE020202000000007F40404000EC
:1031A000000C30C000000000000000010638C00024
:1031B00000020202FE000000004040407F000000CC
:1031C00000000402020204000000000000000000F1
:1031D00000000000000000008080808080808080EF
:1031E00000020204000000000000000000000000D7
:1031F00000008080808000000019242222223F20CD
:1032000008F8008080000000003F112020110E000F
:103210000000008080800000000E1120202011009E
:10322000000000808088F800000E112020103F2050
:103230000000808080800000001F222222221300D4
:10324000008080F0888888180020203F202000001F
:103250000000808080808000006B949494936000D4
:1032600008F8008080800000203F210000203F20DF
:1032700000809898000000000020203F20200000DF
:10328000000000809898000000C08080807F0000CF
:1032900008F8000080808000203F24022D302000AC
:1032A000000808F8000000000020203F2020000057
:1032B0008080808080808000203F20003F20003F71
:1032C0008080008080800000203F210000203F207F
:1032D0000000808080800000001F202020201F0030
:1032E000808000808000000080FFA12020110E005F
:1032F0000000008080808000000E112020A0FF8050
:10330000808080008080800020203F2120000100FC
:103310000000808080808000003324242424190051
:10332000008080E0808000000000001F202000005E
:103330008080000000808000001F202020103F209F
:10334000808080000080808000010E30080601002F
:1033500080800080008080800F300C030C300F00D4
:1033600000808000808080000020312E0E312000FF
:10337000808080000080808080818E70180601002F
:1033800000808080808080000021302C222130004D
:1033900000000000807C020200000000003F40406E
:1033A00000000000FF00000000000000FF0000001F
:1033B0000002027C800000000040403F000000004E
:1033C00000060101020204040000000000000000E9
:1033D00000081020408000000020100804020100B6
:1033E000303132333435363738394142434445463B
:1033F0004030580030313233343536373839616235
:103400006364656640307800040000080000000036
:103410000000000200010000100000003C34000821
:10342000000000200C0700006C010008183700089D
:103430000C0700206C090000D0010008000D104AA4
:103440004C4E0022134B36132D130001700F230036
:103450001400DC05E803A00FA00FDC05176004A230
:103460004A04222012010203040607080901106021
:10347000028C0000FE92010211FE4B100A04047E31
:1034800001407E42427E02F004427E406B31404168
:103490003F011740000B104448507F40407F504888
:1034A0004440200B0000FC242424FC25262408F2A0
:1034B000041EF01040308F80844C55252525554C36
:1034C000808080EB400620104C4754010310D40448
:1034D0003FA1AB0005110F3040F0801004FE0282C6
:1034E0000122FA05F382029E200580601F4001112F
:1034F000C10404104458400010074040424458C0E2
:103500001F000511C0504846201007808040201839
:1035100007C9223F460211787F040D10424242FE45
:103520000042A29E82A2C2BE1E400B806F080828E5
:10353000CF00002FC808E5A0040F1002E222223EAF
:1035400000809E9292F292929E2004104F0043823D
:10355000423E40474444447F444454E780001010B6
:10356000100C4424140405060404142444140C8090
:10357000100440404101227F0505113F0542C02B48
:1035800012127D13FF9101061210C0080C118080E9
:103590005F4020100E1010205F4040052020BEAA82
:1035A0000112BE0C0511811380AF1C12FF20021105
:1035B000AFFF240800807000FF1008C536FAC90963
:1035C0001040180618070810FF1D04061141424C50
:1035D00040FF401007055555D5057F0607115505D5
:1035E00040100D1010108AA96B352525ABE9080C89
:1035F0000D1380031807201808C838CF200E149820
:10360000C0030C0B50040201FF4021060A11208068
:1036100003C28001022E00010C0E100824236AAAA6
:103620002AAA6A2A2A2AEA027F0310080010111522
:103630001515FF041B1110000E11F821032F60F85F
:103640005F0316FFE30A11084012011B1600013D3B
:103650007F030D1180031C0604E45C44C440030C8A
:103660000611F0909F90904003081012013F101037
:103670007F201806914C300F30488498437F4901D1
:1036800002127F1D200A8141211D214181FF8901F4
:103690000F118181C103000D118282422212FA06AC
:1036A0002222424282C01C040100FCBD031E45C10F
:1036B0000332FCCEF5E01C060484E43C27C4030C72
:1036C000041124E404410311FB100400FF09010C60
:1036D000041849897F5B03000415C03FC01A1DBF51
:1036E000041004100C03490C0611030C1020406058
:1036F000041A40FB1005C27E42C2070D12E00361AE
:10370000403DFF04033C7000012DB6066DBA064033
:0837100005020406084F000049
:0400000508000225C8
:00000001FF
